{
  "_format": "hh-sol-artifact-1",
  "contractName": "NFT",
  "sourceName": "contracts/NFT.sol",
  "abi": [
    {
      "inputs": [
        {
          "internalType": "string",
          "name": "_name",
          "type": "string"
        },
        {
          "internalType": "string",
          "name": "_symbol",
          "type": "string"
        },
        {
          "internalType": "uint256",
          "name": "_cost",
          "type": "uint256"
        }
      ],
      "stateMutability": "nonpayable",
      "type": "constructor"
    },
    {
      "anonymous": false,
      "inputs": [
        {
          "indexed": true,
          "internalType": "address",
          "name": "owner",
          "type": "address"
        },
        {
          "indexed": true,
          "internalType": "address",
          "name": "approved",
          "type": "address"
        },
        {
          "indexed": true,
          "internalType": "uint256",
          "name": "tokenId",
          "type": "uint256"
        }
      ],
      "name": "Approval",
      "type": "event"
    },
    {
      "anonymous": false,
      "inputs": [
        {
          "indexed": true,
          "internalType": "address",
          "name": "owner",
          "type": "address"
        },
        {
          "indexed": true,
          "internalType": "address",
          "name": "operator",
          "type": "address"
        },
        {
          "indexed": false,
          "internalType": "bool",
          "name": "approved",
          "type": "bool"
        }
      ],
      "name": "ApprovalForAll",
      "type": "event"
    },
    {
      "anonymous": false,
      "inputs": [
        {
          "indexed": false,
          "internalType": "uint256",
          "name": "_fromTokenId",
          "type": "uint256"
        },
        {
          "indexed": false,
          "internalType": "uint256",
          "name": "_toTokenId",
          "type": "uint256"
        }
      ],
      "name": "BatchMetadataUpdate",
      "type": "event"
    },
    {
      "anonymous": false,
      "inputs": [
        {
          "indexed": false,
          "internalType": "uint256",
          "name": "_tokenId",
          "type": "uint256"
        }
      ],
      "name": "MetadataUpdate",
      "type": "event"
    },
    {
      "anonymous": false,
      "inputs": [
        {
          "indexed": true,
          "internalType": "address",
          "name": "from",
          "type": "address"
        },
        {
          "indexed": true,
          "internalType": "address",
          "name": "to",
          "type": "address"
        },
        {
          "indexed": true,
          "internalType": "uint256",
          "name": "tokenId",
          "type": "uint256"
        }
      ],
      "name": "Transfer",
      "type": "event"
    },
    {
      "inputs": [
        {
          "internalType": "address",
          "name": "to",
          "type": "address"
        },
        {
          "internalType": "uint256",
          "name": "tokenId",
          "type": "uint256"
        }
      ],
      "name": "approve",
      "outputs": [],
      "stateMutability": "nonpayable",
      "type": "function"
    },
    {
      "inputs": [
        {
          "internalType": "address",
          "name": "owner",
          "type": "address"
        }
      ],
      "name": "balanceOf",
      "outputs": [
        {
          "internalType": "uint256",
          "name": "",
          "type": "uint256"
        }
      ],
      "stateMutability": "view",
      "type": "function"
    },
    {
      "inputs": [],
      "name": "cost",
      "outputs": [
        {
          "internalType": "uint256",
          "name": "",
          "type": "uint256"
        }
      ],
      "stateMutability": "view",
      "type": "function"
    },
    {
      "inputs": [
        {
          "internalType": "uint256",
          "name": "tokenId",
          "type": "uint256"
        }
      ],
      "name": "getApproved",
      "outputs": [
        {
          "internalType": "address",
          "name": "",
          "type": "address"
        }
      ],
      "stateMutability": "view",
      "type": "function"
    },
    {
      "inputs": [
        {
          "internalType": "address",
          "name": "owner",
          "type": "address"
        },
        {
          "internalType": "address",
          "name": "operator",
          "type": "address"
        }
      ],
      "name": "isApprovedForAll",
      "outputs": [
        {
          "internalType": "bool",
          "name": "",
          "type": "bool"
        }
      ],
      "stateMutability": "view",
      "type": "function"
    },
    {
      "inputs": [
        {
          "internalType": "string",
          "name": "tokenURI",
          "type": "string"
        }
      ],
      "name": "mint",
      "outputs": [],
      "stateMutability": "payable",
      "type": "function"
    },
    {
      "inputs": [],
      "name": "name",
      "outputs": [
        {
          "internalType": "string",
          "name": "",
          "type": "string"
        }
      ],
      "stateMutability": "view",
      "type": "function"
    },
    {
      "inputs": [],
      "name": "owner",
      "outputs": [
        {
          "internalType": "address",
          "name": "",
          "type": "address"
        }
      ],
      "stateMutability": "view",
      "type": "function"
    },
    {
      "inputs": [
        {
          "internalType": "uint256",
          "name": "tokenId",
          "type": "uint256"
        }
      ],
      "name": "ownerOf",
      "outputs": [
        {
          "internalType": "address",
          "name": "",
          "type": "address"
        }
      ],
      "stateMutability": "view",
      "type": "function"
    },
    {
      "inputs": [
        {
          "internalType": "address",
          "name": "from",
          "type": "address"
        },
        {
          "internalType": "address",
          "name": "to",
          "type": "address"
        },
        {
          "internalType": "uint256",
          "name": "tokenId",
          "type": "uint256"
        }
      ],
      "name": "safeTransferFrom",
      "outputs": [],
      "stateMutability": "nonpayable",
      "type": "function"
    },
    {
      "inputs": [
        {
          "internalType": "address",
          "name": "from",
          "type": "address"
        },
        {
          "internalType": "address",
          "name": "to",
          "type": "address"
        },
        {
          "internalType": "uint256",
          "name": "tokenId",
          "type": "uint256"
        },
        {
          "internalType": "bytes",
          "name": "data",
          "type": "bytes"
        }
      ],
      "name": "safeTransferFrom",
      "outputs": [],
      "stateMutability": "nonpayable",
      "type": "function"
    },
    {
      "inputs": [
        {
          "internalType": "address",
          "name": "operator",
          "type": "address"
        },
        {
          "internalType": "bool",
          "name": "approved",
          "type": "bool"
        }
      ],
      "name": "setApprovalForAll",
      "outputs": [],
      "stateMutability": "nonpayable",
      "type": "function"
    },
    {
      "inputs": [
        {
          "internalType": "bytes4",
          "name": "interfaceId",
          "type": "bytes4"
        }
      ],
      "name": "supportsInterface",
      "outputs": [
        {
          "internalType": "bool",
          "name": "",
          "type": "bool"
        }
      ],
      "stateMutability": "view",
      "type": "function"
    },
    {
      "inputs": [],
      "name": "symbol",
      "outputs": [
        {
          "internalType": "string",
          "name": "",
          "type": "string"
        }
      ],
      "stateMutability": "view",
      "type": "function"
    },
    {
      "inputs": [
        {
          "internalType": "uint256",
          "name": "tokenId",
          "type": "uint256"
        }
      ],
      "name": "tokenURI",
      "outputs": [
        {
          "internalType": "string",
          "name": "",
          "type": "string"
        }
      ],
      "stateMutability": "view",
      "type": "function"
    },
    {
      "inputs": [],
      "name": "totalSupply",
      "outputs": [
        {
          "internalType": "uint256",
          "name": "",
          "type": "uint256"
        }
      ],
      "stateMutability": "view",
      "type": "function"
    },
    {
      "inputs": [
        {
          "internalType": "address",
          "name": "from",
          "type": "address"
        },
        {
          "internalType": "address",
          "name": "to",
          "type": "address"
        },
        {
          "internalType": "uint256",
          "name": "tokenId",
          "type": "uint256"
        }
      ],
      "name": "transferFrom",
      "outputs": [],
      "stateMutability": "nonpayable",
      "type": "function"
    },
    {
      "inputs": [],
      "name": "withdraw",
      "outputs": [],
      "stateMutability": "nonpayable",
      "type": "function"
    }
  ],
  "bytecode": "0x60806040523480156200001157600080fd5b50604051620033e8380380620033e883398181016040528101906200003791906200027e565b828281600090816200004a919062000559565b5080600190816200005c919062000559565b50505033600860006101000a81548173ffffffffffffffffffffffffffffffffffffffff021916908373ffffffffffffffffffffffffffffffffffffffff1602179055508060098190555050505062000640565b6000604051905090565b600080fd5b600080fd5b600080fd5b600080fd5b6000601f19601f8301169050919050565b7f4e487b7100000000000000000000000000000000000000000000000000000000600052604160045260246000fd5b6200011982620000ce565b810181811067ffffffffffffffff821117156200013b576200013a620000df565b5b80604052505050565b600062000150620000b0565b90506200015e82826200010e565b919050565b600067ffffffffffffffff821115620001815762000180620000df565b5b6200018c82620000ce565b9050602081019050919050565b60005b83811015620001b95780820151818401526020810190506200019c565b60008484015250505050565b6000620001dc620001d68462000163565b62000144565b905082815260208101848484011115620001fb57620001fa620000c9565b5b6200020884828562000199565b509392505050565b600082601f830112620002285762000227620000c4565b5b81516200023a848260208601620001c5565b91505092915050565b6000819050919050565b620002588162000243565b81146200026457600080fd5b50565b60008151905062000278816200024d565b92915050565b6000806000606084860312156200029a5762000299620000ba565b5b600084015167ffffffffffffffff811115620002bb57620002ba620000bf565b5b620002c98682870162000210565b935050602084015167ffffffffffffffff811115620002ed57620002ec620000bf565b5b620002fb8682870162000210565b92505060406200030e8682870162000267565b9150509250925092565b600081519050919050565b7f4e487b7100000000000000000000000000000000000000000000000000000000600052602260045260246000fd5b600060028204905060018216806200036b57607f821691505b60208210810362000381576200038062000323565b5b50919050565b60008190508160005260206000209050919050565b60006020601f8301049050919050565b600082821b905092915050565b600060088302620003eb7fffffffffffffffffffffffffffffffffffffffffffffffffffffffffffffffff82620003ac565b620003f78683620003ac565b95508019841693508086168417925050509392505050565b6000819050919050565b60006200043a620004346200042e8462000243565b6200040f565b62000243565b9050919050565b6000819050919050565b620004568362000419565b6200046e620004658262000441565b848454620003b9565b825550505050565b600090565b6200048562000476565b620004928184846200044b565b505050565b5b81811015620004ba57620004ae6000826200047b565b60018101905062000498565b5050565b601f8211156200050957620004d38162000387565b620004de846200039c565b81016020851015620004ee578190505b62000506620004fd856200039c565b83018262000497565b50505b505050565b600082821c905092915050565b60006200052e600019846008026200050e565b1980831691505092915050565b60006200054983836200051b565b9150826002028217905092915050565b620005648262000318565b67ffffffffffffffff81111562000580576200057f620000df565b5b6200058c825462000352565b62000599828285620004be565b600060209050601f831160018114620005d15760008415620005bc578287015190505b620005c885826200053b565b86555062000638565b601f198416620005e18662000387565b60005b828110156200060b57848901518255600182019150602085019450602081019050620005e4565b868310156200062b578489015162000627601f8916826200051b565b8355505b6001600288020188555050505b505050505050565b612d9880620006506000396000f3fe6080604052600436106101095760003560e01c80636352211e11610095578063a22cb46511610064578063a22cb4651461036b578063b88d4fde14610394578063c87b56dd146103bd578063d85d3d27146103fa578063e985e9c51461041657610109565b80636352211e1461029b57806370a08231146102d85780638da5cb5b1461031557806395d89b411461034057610109565b806313faede6116100dc57806313faede6146101dc57806318160ddd1461020757806323b872dd146102325780633ccfd60b1461025b57806342842e0e1461027257610109565b806301ffc9a71461010e57806306fdde031461014b578063081812fc14610176578063095ea7b3146101b3575b600080fd5b34801561011a57600080fd5b5061013560048036038101906101309190611c54565b610453565b6040516101429190611c9c565b60405180910390f35b34801561015757600080fd5b506101606104b4565b60405161016d9190611d47565b60405180910390f35b34801561018257600080fd5b5061019d60048036038101906101989190611d9f565b610546565b6040516101aa9190611e0d565b60405180910390f35b3480156101bf57600080fd5b506101da60048036038101906101d59190611e54565b61058c565b005b3480156101e857600080fd5b506101f16106a3565b6040516101fe9190611ea3565b60405180910390f35b34801561021357600080fd5b5061021c6106a9565b6040516102299190611ea3565b60405180910390f35b34801561023e57600080fd5b5061025960048036038101906102549190611ebe565b6106ba565b005b34801561026757600080fd5b5061027061071a565b005b34801561027e57600080fd5b5061029960048036038101906102949190611ebe565b61080f565b005b3480156102a757600080fd5b506102c260048036038101906102bd9190611d9f565b61082f565b6040516102cf9190611e0d565b60405180910390f35b3480156102e457600080fd5b506102ff60048036038101906102fa9190611f11565b6108b5565b60405161030c9190611ea3565b60405180910390f35b34801561032157600080fd5b5061032a61096c565b6040516103379190611e0d565b60405180910390f35b34801561034c57600080fd5b50610355610992565b6040516103629190611d47565b60405180910390f35b34801561037757600080fd5b50610392600480360381019061038d9190611f6a565b610a24565b005b3480156103a057600080fd5b506103bb60048036038101906103b691906120df565b610a3a565b005b3480156103c957600080fd5b506103e460048036038101906103df9190611d9f565b610a9c565b6040516103f19190611d47565b60405180910390f35b610414600480360381019061040f9190612203565b610bae565b005b34801561042257600080fd5b5061043d6004803603810190610438919061224c565b610bed565b60405161044a9190611c9c565b60405180910390f35b6000634906490660e01b7bffffffffffffffffffffffffffffffffffffffffffffffffffffffff1916827bffffffffffffffffffffffffffffffffffffffffffffffffffffffff191614806104ad57506104ac82610c81565b5b9050919050565b6060600080546104c3906122bb565b80601f01602080910402602001604051908101604052809291908181526020018280546104ef906122bb565b801561053c5780601f106105115761010080835404028352916020019161053c565b820191906000526020600020905b81548152906001019060200180831161051f57829003601f168201915b5050505050905090565b600061055182610d63565b6004600083815260200190815260200160002060009054906101000a900473ffffffffffffffffffffffffffffffffffffffff169050919050565b60006105978261082f565b90508073ffffffffffffffffffffffffffffffffffffffff168373ffffffffffffffffffffffffffffffffffffffff1603610607576040517f08c379a00000000000000000000000000000000000000000000000000000000081526004016105fe9061235e565b60405180910390fd5b8073ffffffffffffffffffffffffffffffffffffffff16610626610dae565b73ffffffffffffffffffffffffffffffffffffffff16148061065557506106548161064f610dae565b610bed565b5b610694576040517f08c379a000000000000000000000000000000000000000000000000000000000815260040161068b906123f0565b60405180910390fd5b61069e8383610db6565b505050565b60095481565b60006106b56007610e6f565b905090565b6106cb6106c5610dae565b82610e7d565b61070a576040517f08c379a000000000000000000000000000000000000000000000000000000000815260040161070190612482565b60405180910390fd5b610715838383610f12565b505050565b600860009054906101000a900473ffffffffffffffffffffffffffffffffffffffff1673ffffffffffffffffffffffffffffffffffffffff163373ffffffffffffffffffffffffffffffffffffffff161461077457600080fd5b6000600860009054906101000a900473ffffffffffffffffffffffffffffffffffffffff1673ffffffffffffffffffffffffffffffffffffffff16476040516107bc906124d3565b60006040518083038185875af1925050503d80600081146107f9576040519150601f19603f3d011682016040523d82523d6000602084013e6107fe565b606091505b505090508061080c57600080fd5b50565b61082a83838360405180602001604052806000815250610a3a565b505050565b60008061083b8361120b565b9050600073ffffffffffffffffffffffffffffffffffffffff168173ffffffffffffffffffffffffffffffffffffffff16036108ac576040517f08c379a00000000000000000000000000000000000000000000000000000000081526004016108a390612534565b60405180910390fd5b80915050919050565b60008073ffffffffffffffffffffffffffffffffffffffff168273ffffffffffffffffffffffffffffffffffffffff1603610925576040517f08c379a000000000000000000000000000000000000000000000000000000000815260040161091c906125c6565b60405180910390fd5b600360008373ffffffffffffffffffffffffffffffffffffffff1673ffffffffffffffffffffffffffffffffffffffff168152602001908152602001600020549050919050565b600860009054906101000a900473ffffffffffffffffffffffffffffffffffffffff1681565b6060600180546109a1906122bb565b80601f01602080910402602001604051908101604052809291908181526020018280546109cd906122bb565b8015610a1a5780601f106109ef57610100808354040283529160200191610a1a565b820191906000526020600020905b8154815290600101906020018083116109fd57829003601f168201915b5050505050905090565b610a36610a2f610dae565b8383611248565b5050565b610a4b610a45610dae565b83610e7d565b610a8a576040517f08c379a0000000000000000000000000000000000000000000000000000000008152600401610a8190612482565b60405180910390fd5b610a96848484846113b4565b50505050565b6060610aa782610d63565b6000600660008481526020019081526020016000208054610ac7906122bb565b80601f0160208091040260200160405190810160405280929190818152602001828054610af3906122bb565b8015610b405780601f10610b1557610100808354040283529160200191610b40565b820191906000526020600020905b815481529060010190602001808311610b2357829003601f168201915b505050505090506000610b51611410565b90506000815103610b66578192505050610ba9565b600082511115610b9b578082604051602001610b83929190612622565b60405160208183030381529060405292505050610ba9565b610ba484611427565b925050505b919050565b600954341015610bbd57600080fd5b610bc7600761148f565b6000610bd36007610e6f565b9050610bdf33826114a5565b610be981836116c2565b5050565b6000600560008473ffffffffffffffffffffffffffffffffffffffff1673ffffffffffffffffffffffffffffffffffffffff16815260200190815260200160002060008373ffffffffffffffffffffffffffffffffffffffff1673ffffffffffffffffffffffffffffffffffffffff16815260200190815260200160002060009054906101000a900460ff16905092915050565b60007f80ac58cd000000000000000000000000000000000000000000000000000000007bffffffffffffffffffffffffffffffffffffffffffffffffffffffff1916827bffffffffffffffffffffffffffffffffffffffffffffffffffffffff19161480610d4c57507f5b5e139f000000000000000000000000000000000000000000000000000000007bffffffffffffffffffffffffffffffffffffffffffffffffffffffff1916827bffffffffffffffffffffffffffffffffffffffffffffffffffffffff1916145b80610d5c5750610d5b82611766565b5b9050919050565b610d6c816117d0565b610dab576040517f08c379a0000000000000000000000000000000000000000000000000000000008152600401610da290612534565b60405180910390fd5b50565b600033905090565b816004600083815260200190815260200160002060006101000a81548173ffffffffffffffffffffffffffffffffffffffff021916908373ffffffffffffffffffffffffffffffffffffffff160217905550808273ffffffffffffffffffffffffffffffffffffffff16610e298361082f565b73ffffffffffffffffffffffffffffffffffffffff167f8c5be1e5ebec7d5bd14f71427d1e84f3dd0314c0f7b2291e5b200ac8c7c3b92560405160405180910390a45050565b600081600001549050919050565b600080610e898361082f565b90508073ffffffffffffffffffffffffffffffffffffffff168473ffffffffffffffffffffffffffffffffffffffff161480610ecb5750610eca8185610bed565b5b80610f0957508373ffffffffffffffffffffffffffffffffffffffff16610ef184610546565b73ffffffffffffffffffffffffffffffffffffffff16145b91505092915050565b8273ffffffffffffffffffffffffffffffffffffffff16610f328261082f565b73ffffffffffffffffffffffffffffffffffffffff1614610f88576040517f08c379a0000000000000000000000000000000000000000000000000000000008152600401610f7f906126b8565b60405180910390fd5b600073ffffffffffffffffffffffffffffffffffffffff168273ffffffffffffffffffffffffffffffffffffffff1603610ff7576040517f08c379a0000000000000000000000000000000000000000000000000000000008152600401610fee9061274a565b60405180910390fd5b6110048383836001611811565b8273ffffffffffffffffffffffffffffffffffffffff166110248261082f565b73ffffffffffffffffffffffffffffffffffffffff161461107a576040517f08c379a0000000000000000000000000000000000000000000000000000000008152600401611071906126b8565b60405180910390fd5b6004600082815260200190815260200160002060006101000a81549073ffffffffffffffffffffffffffffffffffffffff02191690556001600360008573ffffffffffffffffffffffffffffffffffffffff1673ffffffffffffffffffffffffffffffffffffffff168152602001908152602001600020600082825403925050819055506001600360008473ffffffffffffffffffffffffffffffffffffffff1673ffffffffffffffffffffffffffffffffffffffff16815260200190815260200160002060008282540192505081905550816002600083815260200190815260200160002060006101000a81548173ffffffffffffffffffffffffffffffffffffffff021916908373ffffffffffffffffffffffffffffffffffffffff160217905550808273ffffffffffffffffffffffffffffffffffffffff168473ffffffffffffffffffffffffffffffffffffffff167fddf252ad1be2c89b69c2b068fc378daa952ba7f163c4a11628f55a4df523b3ef60405160405180910390a46112068383836001611817565b505050565b60006002600083815260200190815260200160002060009054906101000a900473ffffffffffffffffffffffffffffffffffffffff169050919050565b8173ffffffffffffffffffffffffffffffffffffffff168373ffffffffffffffffffffffffffffffffffffffff16036112b6576040517f08c379a00000000000000000000000000000000000000000000000000000000081526004016112ad906127b6565b60405180910390fd5b80600560008573ffffffffffffffffffffffffffffffffffffffff1673ffffffffffffffffffffffffffffffffffffffff16815260200190815260200160002060008473ffffffffffffffffffffffffffffffffffffffff1673ffffffffffffffffffffffffffffffffffffffff16815260200190815260200160002060006101000a81548160ff0219169083151502179055508173ffffffffffffffffffffffffffffffffffffffff168373ffffffffffffffffffffffffffffffffffffffff167f17307eab39ab6107e8899845ad3d59bd9653f200f220920489ca2b5937696c31836040516113a79190611c9c565b60405180910390a3505050565b6113bf848484610f12565b6113cb8484848461181d565b61140a576040517f08c379a000000000000000000000000000000000000000000000000000000000815260040161140190612848565b60405180910390fd5b50505050565b606060405180602001604052806000815250905090565b606061143282610d63565b600061143c611410565b9050600081511161145c5760405180602001604052806000815250611487565b80611466846119a4565b604051602001611477929190612622565b6040516020818303038152906040525b915050919050565b6001816000016000828254019250508190555050565b600073ffffffffffffffffffffffffffffffffffffffff168273ffffffffffffffffffffffffffffffffffffffff1603611514576040517f08c379a000000000000000000000000000000000000000000000000000000000815260040161150b906128b4565b60405180910390fd5b61151d816117d0565b1561155d576040517f08c379a000000000000000000000000000000000000000000000000000000000815260040161155490612920565b60405180910390fd5b61156b600083836001611811565b611574816117d0565b156115b4576040517f08c379a00000000000000000000000000000000000000000000000000000000081526004016115ab90612920565b60405180910390fd5b6001600360008473ffffffffffffffffffffffffffffffffffffffff1673ffffffffffffffffffffffffffffffffffffffff16815260200190815260200160002060008282540192505081905550816002600083815260200190815260200160002060006101000a81548173ffffffffffffffffffffffffffffffffffffffff021916908373ffffffffffffffffffffffffffffffffffffffff160217905550808273ffffffffffffffffffffffffffffffffffffffff16600073ffffffffffffffffffffffffffffffffffffffff167fddf252ad1be2c89b69c2b068fc378daa952ba7f163c4a11628f55a4df523b3ef60405160405180910390a46116be600083836001611817565b5050565b6116cb826117d0565b61170a576040517f08c379a0000000000000000000000000000000000000000000000000000000008152600401611701906129b2565b60405180910390fd5b8060066000848152602001908152602001600020908161172a9190612b7e565b507ff8e1a15aba9398e019f0b49df1a4fde98ee17ae345cb5f6b5e2c27f5033e8ce78260405161175a9190611ea3565b60405180910390a15050565b60007f01ffc9a7000000000000000000000000000000000000000000000000000000007bffffffffffffffffffffffffffffffffffffffffffffffffffffffff1916827bffffffffffffffffffffffffffffffffffffffffffffffffffffffff1916149050919050565b60008073ffffffffffffffffffffffffffffffffffffffff166117f28361120b565b73ffffffffffffffffffffffffffffffffffffffff1614159050919050565b50505050565b50505050565b600061183e8473ffffffffffffffffffffffffffffffffffffffff16611a72565b15611997578373ffffffffffffffffffffffffffffffffffffffff1663150b7a02611867610dae565b8786866040518563ffffffff1660e01b81526004016118899493929190612ca5565b6020604051808303816000875af19250505080156118c557506040513d601f19601f820116820180604052508101906118c29190612d06565b60015b611947573d80600081146118f5576040519150601f19603f3d011682016040523d82523d6000602084013e6118fa565b606091505b50600081510361193f576040517f08c379a000000000000000000000000000000000000000000000000000000000815260040161193690612848565b60405180910390fd5b805181602001fd5b63150b7a0260e01b7bffffffffffffffffffffffffffffffffffffffffffffffffffffffff1916817bffffffffffffffffffffffffffffffffffffffffffffffffffffffff19161491505061199c565b600190505b949350505050565b6060600060016119b384611a95565b01905060008167ffffffffffffffff8111156119d2576119d1611fb4565b5b6040519080825280601f01601f191660200182016040528015611a045781602001600182028036833780820191505090505b509050600082602001820190505b600115611a67578080600190039150507f3031323334353637383961626364656600000000000000000000000000000000600a86061a8153600a8581611a5b57611a5a612d33565b5b04945060008503611a12575b819350505050919050565b6000808273ffffffffffffffffffffffffffffffffffffffff163b119050919050565b600080600090507a184f03e93ff9f4daa797ed6e38ed64bf6a1f0100000000000000008310611af3577a184f03e93ff9f4daa797ed6e38ed64bf6a1f0100000000000000008381611ae957611ae8612d33565b5b0492506040810190505b6d04ee2d6d415b85acef81000000008310611b30576d04ee2d6d415b85acef81000000008381611b2657611b25612d33565b5b0492506020810190505b662386f26fc100008310611b5f57662386f26fc100008381611b5557611b54612d33565b5b0492506010810190505b6305f5e1008310611b88576305f5e1008381611b7e57611b7d612d33565b5b0492506008810190505b6127108310611bad576127108381611ba357611ba2612d33565b5b0492506004810190505b60648310611bd05760648381611bc657611bc5612d33565b5b0492506002810190505b600a8310611bdf576001810190505b80915050919050565b6000604051905090565b600080fd5b600080fd5b60007fffffffff0000000000000000000000000000000000000000000000000000000082169050919050565b611c3181611bfc565b8114611c3c57600080fd5b50565b600081359050611c4e81611c28565b92915050565b600060208284031215611c6a57611c69611bf2565b5b6000611c7884828501611c3f565b91505092915050565b60008115159050919050565b611c9681611c81565b82525050565b6000602082019050611cb16000830184611c8d565b92915050565b600081519050919050565b600082825260208201905092915050565b60005b83811015611cf1578082015181840152602081019050611cd6565b60008484015250505050565b6000601f19601f8301169050919050565b6000611d1982611cb7565b611d238185611cc2565b9350611d33818560208601611cd3565b611d3c81611cfd565b840191505092915050565b60006020820190508181036000830152611d618184611d0e565b905092915050565b6000819050919050565b611d7c81611d69565b8114611d8757600080fd5b50565b600081359050611d9981611d73565b92915050565b600060208284031215611db557611db4611bf2565b5b6000611dc384828501611d8a565b91505092915050565b600073ffffffffffffffffffffffffffffffffffffffff82169050919050565b6000611df782611dcc565b9050919050565b611e0781611dec565b82525050565b6000602082019050611e226000830184611dfe565b92915050565b611e3181611dec565b8114611e3c57600080fd5b50565b600081359050611e4e81611e28565b92915050565b60008060408385031215611e6b57611e6a611bf2565b5b6000611e7985828601611e3f565b9250506020611e8a85828601611d8a565b9150509250929050565b611e9d81611d69565b82525050565b6000602082019050611eb86000830184611e94565b92915050565b600080600060608486031215611ed757611ed6611bf2565b5b6000611ee586828701611e3f565b9350506020611ef686828701611e3f565b9250506040611f0786828701611d8a565b9150509250925092565b600060208284031215611f2757611f26611bf2565b5b6000611f3584828501611e3f565b91505092915050565b611f4781611c81565b8114611f5257600080fd5b50565b600081359050611f6481611f3e565b92915050565b60008060408385031215611f8157611f80611bf2565b5b6000611f8f85828601611e3f565b9250506020611fa085828601611f55565b9150509250929050565b600080fd5b600080fd5b7f4e487b7100000000000000000000000000000000000000000000000000000000600052604160045260246000fd5b611fec82611cfd565b810181811067ffffffffffffffff8211171561200b5761200a611fb4565b5b80604052505050565b600061201e611be8565b905061202a8282611fe3565b919050565b600067ffffffffffffffff82111561204a57612049611fb4565b5b61205382611cfd565b9050602081019050919050565b82818337600083830152505050565b600061208261207d8461202f565b612014565b90508281526020810184848401111561209e5761209d611faf565b5b6120a9848285612060565b509392505050565b600082601f8301126120c6576120c5611faa565b5b81356120d684826020860161206f565b91505092915050565b600080600080608085870312156120f9576120f8611bf2565b5b600061210787828801611e3f565b945050602061211887828801611e3f565b935050604061212987828801611d8a565b925050606085013567ffffffffffffffff81111561214a57612149611bf7565b5b612156878288016120b1565b91505092959194509250565b600067ffffffffffffffff82111561217d5761217c611fb4565b5b61218682611cfd565b9050602081019050919050565b60006121a66121a184612162565b612014565b9050828152602081018484840111156121c2576121c1611faf565b5b6121cd848285612060565b509392505050565b600082601f8301126121ea576121e9611faa565b5b81356121fa848260208601612193565b91505092915050565b60006020828403121561221957612218611bf2565b5b600082013567ffffffffffffffff81111561223757612236611bf7565b5b612243848285016121d5565b91505092915050565b6000806040838503121561226357612262611bf2565b5b600061227185828601611e3f565b925050602061228285828601611e3f565b9150509250929050565b7f4e487b7100000000000000000000000000000000000000000000000000000000600052602260045260246000fd5b600060028204905060018216806122d357607f821691505b6020821081036122e6576122e561228c565b5b50919050565b7f4552433732313a20617070726f76616c20746f2063757272656e74206f776e6560008201527f7200000000000000000000000000000000000000000000000000000000000000602082015250565b6000612348602183611cc2565b9150612353826122ec565b604082019050919050565b600060208201905081810360008301526123778161233b565b9050919050565b7f4552433732313a20617070726f76652063616c6c6572206973206e6f7420746f60008201527f6b656e206f776e6572206f7220617070726f76656420666f7220616c6c000000602082015250565b60006123da603d83611cc2565b91506123e58261237e565b604082019050919050565b60006020820190508181036000830152612409816123cd565b9050919050565b7f4552433732313a2063616c6c6572206973206e6f7420746f6b656e206f776e6560008201527f72206f7220617070726f76656400000000000000000000000000000000000000602082015250565b600061246c602d83611cc2565b915061247782612410565b604082019050919050565b6000602082019050818103600083015261249b8161245f565b9050919050565b600081905092915050565b50565b60006124bd6000836124a2565b91506124c8826124ad565b600082019050919050565b60006124de826124b0565b9150819050919050565b7f4552433732313a20696e76616c696420746f6b656e2049440000000000000000600082015250565b600061251e601883611cc2565b9150612529826124e8565b602082019050919050565b6000602082019050818103600083015261254d81612511565b9050919050565b7f4552433732313a2061646472657373207a65726f206973206e6f74206120766160008201527f6c6964206f776e65720000000000000000000000000000000000000000000000602082015250565b60006125b0602983611cc2565b91506125bb82612554565b604082019050919050565b600060208201905081810360008301526125df816125a3565b9050919050565b600081905092915050565b60006125fc82611cb7565b61260681856125e6565b9350612616818560208601611cd3565b80840191505092915050565b600061262e82856125f1565b915061263a82846125f1565b91508190509392505050565b7f4552433732313a207472616e736665722066726f6d20696e636f72726563742060008201527f6f776e6572000000000000000000000000000000000000000000000000000000602082015250565b60006126a2602583611cc2565b91506126ad82612646565b604082019050919050565b600060208201905081810360008301526126d181612695565b9050919050565b7f4552433732313a207472616e7366657220746f20746865207a65726f2061646460008201527f7265737300000000000000000000000000000000000000000000000000000000602082015250565b6000612734602483611cc2565b915061273f826126d8565b604082019050919050565b6000602082019050818103600083015261276381612727565b9050919050565b7f4552433732313a20617070726f766520746f2063616c6c657200000000000000600082015250565b60006127a0601983611cc2565b91506127ab8261276a565b602082019050919050565b600060208201905081810360008301526127cf81612793565b9050919050565b7f4552433732313a207472616e7366657220746f206e6f6e20455243373231526560008201527f63656976657220696d706c656d656e7465720000000000000000000000000000602082015250565b6000612832603283611cc2565b915061283d826127d6565b604082019050919050565b6000602082019050818103600083015261286181612825565b9050919050565b7f4552433732313a206d696e7420746f20746865207a65726f2061646472657373600082015250565b600061289e602083611cc2565b91506128a982612868565b602082019050919050565b600060208201905081810360008301526128cd81612891565b9050919050565b7f4552433732313a20746f6b656e20616c7265616479206d696e74656400000000600082015250565b600061290a601c83611cc2565b9150612915826128d4565b602082019050919050565b60006020820190508181036000830152612939816128fd565b9050919050565b7f45524337323155524953746f726167653a2055524920736574206f66206e6f6e60008201527f6578697374656e7420746f6b656e000000000000000000000000000000000000602082015250565b600061299c602e83611cc2565b91506129a782612940565b604082019050919050565b600060208201905081810360008301526129cb8161298f565b9050919050565b60008190508160005260206000209050919050565b60006020601f8301049050919050565b600082821b905092915050565b600060088302612a347fffffffffffffffffffffffffffffffffffffffffffffffffffffffffffffffff826129f7565b612a3e86836129f7565b95508019841693508086168417925050509392505050565b6000819050919050565b6000612a7b612a76612a7184611d69565b612a56565b611d69565b9050919050565b6000819050919050565b612a9583612a60565b612aa9612aa182612a82565b848454612a04565b825550505050565b600090565b612abe612ab1565b612ac9818484612a8c565b505050565b5b81811015612aed57612ae2600082612ab6565b600181019050612acf565b5050565b601f821115612b3257612b03816129d2565b612b0c846129e7565b81016020851015612b1b578190505b612b2f612b27856129e7565b830182612ace565b50505b505050565b600082821c905092915050565b6000612b5560001984600802612b37565b1980831691505092915050565b6000612b6e8383612b44565b9150826002028217905092915050565b612b8782611cb7565b67ffffffffffffffff811115612ba057612b9f611fb4565b5b612baa82546122bb565b612bb5828285612af1565b600060209050601f831160018114612be85760008415612bd6578287015190505b612be08582612b62565b865550612c48565b601f198416612bf6866129d2565b60005b82811015612c1e57848901518255600182019150602085019450602081019050612bf9565b86831015612c3b5784890151612c37601f891682612b44565b8355505b6001600288020188555050505b505050505050565b600081519050919050565b600082825260208201905092915050565b6000612c7782612c50565b612c818185612c5b565b9350612c91818560208601611cd3565b612c9a81611cfd565b840191505092915050565b6000608082019050612cba6000830187611dfe565b612cc76020830186611dfe565b612cd46040830185611e94565b8181036060830152612ce68184612c6c565b905095945050505050565b600081519050612d0081611c28565b92915050565b600060208284031215612d1c57612d1b611bf2565b5b6000612d2a84828501612cf1565b91505092915050565b7f4e487b7100000000000000000000000000000000000000000000000000000000600052601260045260246000fdfea264697066735822122099f61734d0d0f7797939c0f7e40b0a8fc7d0638844d1b7652b440c48d2a55b5d64736f6c63430008110033",
  "linkReferences": {},
  "deployedLinkReferences": {}
}